{
  "contractName": "Voting",
  "abi": [
    {
      "anonymous": false,
      "inputs": [
        {
          "indexed": true,
          "internalType": "address",
          "name": "previousOwner",
          "type": "address"
        },
        {
          "indexed": true,
          "internalType": "address",
          "name": "newOwner",
          "type": "address"
        }
      ],
      "name": "OwnershipTransferred",
      "type": "event"
    },
    {
      "anonymous": false,
      "inputs": [
        {
          "indexed": false,
          "internalType": "uint256",
          "name": "proposalId",
          "type": "uint256"
        }
      ],
      "name": "ProposalRegistered",
      "type": "event"
    },
    {
      "anonymous": false,
      "inputs": [
        {
          "indexed": false,
          "internalType": "address",
          "name": "voter",
          "type": "address"
        },
        {
          "indexed": false,
          "internalType": "uint256",
          "name": "proposalId",
          "type": "uint256"
        }
      ],
      "name": "Voted",
      "type": "event"
    },
    {
      "anonymous": false,
      "inputs": [
        {
          "indexed": false,
          "internalType": "address",
          "name": "voterAddress",
          "type": "address"
        }
      ],
      "name": "VoterRegistered",
      "type": "event"
    },
    {
      "anonymous": false,
      "inputs": [
        {
          "indexed": false,
          "internalType": "enum Voting.WorkflowStatus",
          "name": "previousStatus",
          "type": "uint8"
        },
        {
          "indexed": false,
          "internalType": "enum Voting.WorkflowStatus",
          "name": "newStatus",
          "type": "uint8"
        }
      ],
      "name": "WorkflowStatusChange",
      "type": "event"
    },
    {
      "inputs": [],
      "name": "owner",
      "outputs": [
        {
          "internalType": "address",
          "name": "",
          "type": "address"
        }
      ],
      "stateMutability": "view",
      "type": "function",
      "constant": true
    },
    {
      "inputs": [],
      "name": "renounceOwnership",
      "outputs": [],
      "stateMutability": "nonpayable",
      "type": "function"
    },
    {
      "inputs": [
        {
          "internalType": "address",
          "name": "newOwner",
          "type": "address"
        }
      ],
      "name": "transferOwnership",
      "outputs": [],
      "stateMutability": "nonpayable",
      "type": "function"
    },
    {
      "inputs": [],
      "name": "winningProposalID",
      "outputs": [
        {
          "internalType": "uint256",
          "name": "",
          "type": "uint256"
        }
      ],
      "stateMutability": "view",
      "type": "function",
      "constant": true
    },
    {
      "inputs": [],
      "name": "workflowStatus",
      "outputs": [
        {
          "internalType": "enum Voting.WorkflowStatus",
          "name": "",
          "type": "uint8"
        }
      ],
      "stateMutability": "view",
      "type": "function",
      "constant": true
    },
    {
      "inputs": [
        {
          "internalType": "address",
          "name": "_addr",
          "type": "address"
        }
      ],
      "name": "getVoter",
      "outputs": [
        {
          "components": [
            {
              "internalType": "bool",
              "name": "isRegistered",
              "type": "bool"
            },
            {
              "internalType": "bool",
              "name": "hasVoted",
              "type": "bool"
            },
            {
              "internalType": "uint256",
              "name": "votedProposalId",
              "type": "uint256"
            }
          ],
          "internalType": "struct Voting.Voter",
          "name": "",
          "type": "tuple"
        }
      ],
      "stateMutability": "view",
      "type": "function",
      "constant": true
    },
    {
      "inputs": [
        {
          "internalType": "uint256",
          "name": "_id",
          "type": "uint256"
        }
      ],
      "name": "getOneProposal",
      "outputs": [
        {
          "components": [
            {
              "internalType": "string",
              "name": "description",
              "type": "string"
            },
            {
              "internalType": "uint256",
              "name": "voteCount",
              "type": "uint256"
            }
          ],
          "internalType": "struct Voting.Proposal",
          "name": "",
          "type": "tuple"
        }
      ],
      "stateMutability": "view",
      "type": "function",
      "constant": true
    },
    {
      "inputs": [
        {
          "internalType": "address",
          "name": "_addr",
          "type": "address"
        }
      ],
      "name": "addVoter",
      "outputs": [],
      "stateMutability": "nonpayable",
      "type": "function"
    },
    {
      "inputs": [
        {
          "internalType": "string",
          "name": "_desc",
          "type": "string"
        }
      ],
      "name": "addProposal",
      "outputs": [],
      "stateMutability": "nonpayable",
      "type": "function"
    },
    {
      "inputs": [
        {
          "internalType": "uint256",
          "name": "_id",
          "type": "uint256"
        }
      ],
      "name": "setVote",
      "outputs": [],
      "stateMutability": "nonpayable",
      "type": "function"
    },
    {
      "inputs": [],
      "name": "startProposalsRegistering",
      "outputs": [],
      "stateMutability": "nonpayable",
      "type": "function"
    },
    {
      "inputs": [],
      "name": "endProposalsRegistering",
      "outputs": [],
      "stateMutability": "nonpayable",
      "type": "function"
    },
    {
      "inputs": [],
      "name": "startVotingSession",
      "outputs": [],
      "stateMutability": "nonpayable",
      "type": "function"
    },
    {
      "inputs": [],
      "name": "endVotingSession",
      "outputs": [],
      "stateMutability": "nonpayable",
      "type": "function"
    },
    {
      "inputs": [],
      "name": "tallyVotes",
      "outputs": [],
      "stateMutability": "nonpayable",
      "type": "function"
    }
  ],
  "bytecode": "0x60806040523480156200001157600080fd5b5062000032620000266200003860201b60201c565b6200004060201b60201c565b62000104565b600033905090565b60008060009054906101000a900473ffffffffffffffffffffffffffffffffffffffff169050816000806101000a81548173ffffffffffffffffffffffffffffffffffffffff021916908373ffffffffffffffffffffffffffffffffffffffff1602179055508173ffffffffffffffffffffffffffffffffffffffff168173ffffffffffffffffffffffffffffffffffffffff167f8be0079c531659141344cd1fd0a4f28419497f9722a3daafe3b4186f6b6457e060405160405180910390a35050565b61274680620001146000396000f3fe608060405234801561001057600080fd5b50600436106100f55760003560e01c8063a7bfab1611610097578063d4f50f9811610066578063d4f50f98146101ee578063ee74c6781461021e578063f2fde38b14610228578063f4ab9adf14610244576100f5565b8063a7bfab16146101b2578063bdc01431146101bc578063c7038a4e146101da578063c88af42f146101e4576100f5565b8063715018a6116100d3578063715018a61461013c5780638da5cb5b14610146578063a1edffa214610164578063a2788cce14610182576100f5565b8063230796ae146100fa5780632fdae3c514610116578063378a217814610132575b600080fd5b610114600480360381019061010f91906116a1565b610260565b005b610130600480360381019061012b9190611814565b61055b565b005b61013a610797565b005b610144610978565b005b61014e610a00565b60405161015b919061189e565b60405180910390f35b61016c610a29565b6040516101799190611930565b60405180910390f35b61019c600480360381019061019791906116a1565b610a3c565b6040516101a99190611a1f565b60405180910390f35b6101ba610ba3565b005b6101c4610cfd565b6040516101d19190611a50565b60405180910390f35b6101e2610d03565b005b6101ec610e5d565b005b61020860048036038101906102039190611a97565b610fb6565b6040516102159190611b21565b60405180910390f35b6102266110de565b005b610242600480360381019061023d9190611a97565b611238565b005b61025e60048036038101906102599190611a97565b61132f565b005b600460003373ffffffffffffffffffffffffffffffffffffffff1673ffffffffffffffffffffffffffffffffffffffff16815260200190815260200160002060000160009054906101000a900460ff166102ef576040517f08c379a00000000000000000000000000000000000000000000000000000000081526004016102e690611b99565b60405180910390fd5b60036005811115610303576103026118b9565b5b600260009054906101000a900460ff166005811115610325576103246118b9565b5b14610365576040517f08c379a000000000000000000000000000000000000000000000000000000000815260040161035c90611c2b565b60405180910390fd5b60011515600460003373ffffffffffffffffffffffffffffffffffffffff1673ffffffffffffffffffffffffffffffffffffffff16815260200190815260200160002060000160019054906101000a900460ff161515036103fb576040517f08c379a00000000000000000000000000000000000000000000000000000000081526004016103f290611c97565b60405180910390fd5b6003805490508110610442576040517f08c379a000000000000000000000000000000000000000000000000000000000815260040161043990611d03565b60405180910390fd5b80600460003373ffffffffffffffffffffffffffffffffffffffff1673ffffffffffffffffffffffffffffffffffffffff168152602001908152602001600020600101819055506001600460003373ffffffffffffffffffffffffffffffffffffffff1673ffffffffffffffffffffffffffffffffffffffff16815260200190815260200160002060000160016101000a81548160ff021916908315150217905550600381815481106104f8576104f7611d23565b5b9060005260206000209060020201600101600081548092919061051a90611d81565b91905055507f4d99b957a2bc29a30ebd96a7be8e68fe50a3c701db28a91436490b7d53870ca43382604051610550929190611dc9565b60405180910390a150565b600460003373ffffffffffffffffffffffffffffffffffffffff1673ffffffffffffffffffffffffffffffffffffffff16815260200190815260200160002060000160009054906101000a900460ff166105ea576040517f08c379a00000000000000000000000000000000000000000000000000000000081526004016105e190611b99565b60405180910390fd5b600160058111156105fe576105fd6118b9565b5b600260009054906101000a900460ff1660058111156106205761061f6118b9565b5b14610660576040517f08c379a000000000000000000000000000000000000000000000000000000000815260040161065790611e3e565b60405180910390fd5b60405160200161066f90611e84565b60405160208183030381529060405280519060200120816040516020016106969190611edd565b60405160208183030381529060405280519060200120036106ec576040517f08c379a00000000000000000000000000000000000000000000000000000000081526004016106e390611f71565b60405180910390fd5b6106f4611618565b8181600001819052506003819080600181540180825580915050600190039060005260206000209060020201600090919091909150600082015181600001908161073e919061219d565b506020820151816001015550507f92e393e9b54e2f801d3ea4beb0c5e71a21cc34a5d34b77d0fb8a3aa1650dc18f600160038054905061077e919061226f565b60405161078b9190611a50565b60405180910390a15050565b61079f61154c565b73ffffffffffffffffffffffffffffffffffffffff166107bd610a00565b73ffffffffffffffffffffffffffffffffffffffff1614610813576040517f08c379a000000000000000000000000000000000000000000000000000000000815260040161080a906122ef565b60405180910390fd5b60046005811115610827576108266118b9565b5b600260009054906101000a900460ff166005811115610849576108486118b9565b5b14610889576040517f08c379a000000000000000000000000000000000000000000000000000000000815260040161088090612381565b60405180910390fd5b600080600090505b60038054905081101561090757600382815481106108b2576108b1611d23565b5b906000526020600020906002020160010154600382815481106108d8576108d7611d23565b5b90600052602060002090600202016001015411156108f4578091505b80806108ff90611d81565b915050610891565b50806001819055506005600260006101000a81548160ff02191690836005811115610935576109346118b9565b5b02179055507f0a97a4ee45751e2abf3e4fc8946939630b11b371ea8ae39ccdc3056e98f5cc3f6004600560405161096d9291906123a1565b60405180910390a150565b61098061154c565b73ffffffffffffffffffffffffffffffffffffffff1661099e610a00565b73ffffffffffffffffffffffffffffffffffffffff16146109f4576040517f08c379a00000000000000000000000000000000000000000000000000000000081526004016109eb906122ef565b60405180910390fd5b6109fe6000611554565b565b60008060009054906101000a900473ffffffffffffffffffffffffffffffffffffffff16905090565b600260009054906101000a900460ff1681565b610a44611618565b600460003373ffffffffffffffffffffffffffffffffffffffff1673ffffffffffffffffffffffffffffffffffffffff16815260200190815260200160002060000160009054906101000a900460ff16610ad3576040517f08c379a0000000000000000000000000000000000000000000000000000000008152600401610aca90611b99565b60405180910390fd5b60038281548110610ae757610ae6611d23565b5b9060005260206000209060020201604051806040016040529081600082018054610b1090611fc0565b80601f0160208091040260200160405190810160405280929190818152602001828054610b3c90611fc0565b8015610b895780601f10610b5e57610100808354040283529160200191610b89565b820191906000526020600020905b815481529060010190602001808311610b6c57829003601f168201915b505050505081526020016001820154815250509050919050565b610bab61154c565b73ffffffffffffffffffffffffffffffffffffffff16610bc9610a00565b73ffffffffffffffffffffffffffffffffffffffff1614610c1f576040517f08c379a0000000000000000000000000000000000000000000000000000000008152600401610c16906122ef565b60405180910390fd5b60036005811115610c3357610c326118b9565b5b600260009054906101000a900460ff166005811115610c5557610c546118b9565b5b14610c95576040517f08c379a0000000000000000000000000000000000000000000000000000000008152600401610c8c90611c2b565b60405180910390fd5b6004600260006101000a81548160ff02191690836005811115610cbb57610cba6118b9565b5b02179055507f0a97a4ee45751e2abf3e4fc8946939630b11b371ea8ae39ccdc3056e98f5cc3f60036004604051610cf39291906123a1565b60405180910390a1565b60015481565b610d0b61154c565b73ffffffffffffffffffffffffffffffffffffffff16610d29610a00565b73ffffffffffffffffffffffffffffffffffffffff1614610d7f576040517f08c379a0000000000000000000000000000000000000000000000000000000008152600401610d76906122ef565b60405180910390fd5b60006005811115610d9357610d926118b9565b5b600260009054906101000a900460ff166005811115610db557610db46118b9565b5b14610df5576040517f08c379a0000000000000000000000000000000000000000000000000000000008152600401610dec9061243c565b60405180910390fd5b6001600260006101000a81548160ff02191690836005811115610e1b57610e1a6118b9565b5b02179055507f0a97a4ee45751e2abf3e4fc8946939630b11b371ea8ae39ccdc3056e98f5cc3f60006001604051610e539291906123a1565b60405180910390a1565b610e6561154c565b73ffffffffffffffffffffffffffffffffffffffff16610e83610a00565b73ffffffffffffffffffffffffffffffffffffffff1614610ed9576040517f08c379a0000000000000000000000000000000000000000000000000000000008152600401610ed0906122ef565b60405180910390fd5b60016005811115610eed57610eec6118b9565b5b600260009054906101000a900460ff166005811115610f0f57610f0e6118b9565b5b14610f4f576040517f08c379a0000000000000000000000000000000000000000000000000000000008152600401610f46906124ce565b60405180910390fd5b60028060006101000a81548160ff02191690836005811115610f7457610f736118b9565b5b02179055507f0a97a4ee45751e2abf3e4fc8946939630b11b371ea8ae39ccdc3056e98f5cc3f60016002604051610fac9291906123a1565b60405180910390a1565b610fbe611632565b600460003373ffffffffffffffffffffffffffffffffffffffff1673ffffffffffffffffffffffffffffffffffffffff16815260200190815260200160002060000160009054906101000a900460ff1661104d576040517f08c379a000000000000000000000000000000000000000000000000000000000815260040161104490611b99565b60405180910390fd5b600460008373ffffffffffffffffffffffffffffffffffffffff1673ffffffffffffffffffffffffffffffffffffffff1681526020019081526020016000206040518060600160405290816000820160009054906101000a900460ff161515151581526020016000820160019054906101000a900460ff161515151581526020016001820154815250509050919050565b6110e661154c565b73ffffffffffffffffffffffffffffffffffffffff16611104610a00565b73ffffffffffffffffffffffffffffffffffffffff161461115a576040517f08c379a0000000000000000000000000000000000000000000000000000000008152600401611151906122ef565b60405180910390fd5b6002600581111561116e5761116d6118b9565b5b600260009054906101000a900460ff1660058111156111905761118f6118b9565b5b146111d0576040517f08c379a00000000000000000000000000000000000000000000000000000000081526004016111c790612560565b60405180910390fd5b6003600260006101000a81548160ff021916908360058111156111f6576111f56118b9565b5b02179055507f0a97a4ee45751e2abf3e4fc8946939630b11b371ea8ae39ccdc3056e98f5cc3f6002600360405161122e9291906123a1565b60405180910390a1565b61124061154c565b73ffffffffffffffffffffffffffffffffffffffff1661125e610a00565b73ffffffffffffffffffffffffffffffffffffffff16146112b4576040517f08c379a00000000000000000000000000000000000000000000000000000000081526004016112ab906122ef565b60405180910390fd5b600073ffffffffffffffffffffffffffffffffffffffff168173ffffffffffffffffffffffffffffffffffffffff1603611323576040517f08c379a000000000000000000000000000000000000000000000000000000000815260040161131a906125f2565b60405180910390fd5b61132c81611554565b50565b61133761154c565b73ffffffffffffffffffffffffffffffffffffffff16611355610a00565b73ffffffffffffffffffffffffffffffffffffffff16146113ab576040517f08c379a00000000000000000000000000000000000000000000000000000000081526004016113a2906122ef565b60405180910390fd5b600060058111156113bf576113be6118b9565b5b600260009054906101000a900460ff1660058111156113e1576113e06118b9565b5b14611421576040517f08c379a000000000000000000000000000000000000000000000000000000000815260040161141890612684565b60405180910390fd5b60011515600460008373ffffffffffffffffffffffffffffffffffffffff1673ffffffffffffffffffffffffffffffffffffffff16815260200190815260200160002060000160009054906101000a900460ff161515036114b7576040517f08c379a00000000000000000000000000000000000000000000000000000000081526004016114ae906126f0565b60405180910390fd5b6001600460008373ffffffffffffffffffffffffffffffffffffffff1673ffffffffffffffffffffffffffffffffffffffff16815260200190815260200160002060000160006101000a81548160ff0219169083151502179055507fb6be2187d059cc2a55fe29e0e503b566e1e0f8c8780096e185429350acffd3dd81604051611541919061189e565b60405180910390a150565b600033905090565b60008060009054906101000a900473ffffffffffffffffffffffffffffffffffffffff169050816000806101000a81548173ffffffffffffffffffffffffffffffffffffffff021916908373ffffffffffffffffffffffffffffffffffffffff1602179055508173ffffffffffffffffffffffffffffffffffffffff168173ffffffffffffffffffffffffffffffffffffffff167f8be0079c531659141344cd1fd0a4f28419497f9722a3daafe3b4186f6b6457e060405160405180910390a35050565b604051806040016040528060608152602001600081525090565b6040518060600160405280600015158152602001600015158152602001600081525090565b6000604051905090565b600080fd5b600080fd5b6000819050919050565b61167e8161166b565b811461168957600080fd5b50565b60008135905061169b81611675565b92915050565b6000602082840312156116b7576116b6611661565b5b60006116c58482850161168c565b91505092915050565b600080fd5b600080fd5b6000601f19601f8301169050919050565b7f4e487b7100000000000000000000000000000000000000000000000000000000600052604160045260246000fd5b611721826116d8565b810181811067ffffffffffffffff821117156117405761173f6116e9565b5b80604052505050565b6000611753611657565b905061175f8282611718565b919050565b600067ffffffffffffffff82111561177f5761177e6116e9565b5b611788826116d8565b9050602081019050919050565b82818337600083830152505050565b60006117b76117b284611764565b611749565b9050828152602081018484840111156117d3576117d26116d3565b5b6117de848285611795565b509392505050565b600082601f8301126117fb576117fa6116ce565b5b813561180b8482602086016117a4565b91505092915050565b60006020828403121561182a57611829611661565b5b600082013567ffffffffffffffff81111561184857611847611666565b5b611854848285016117e6565b91505092915050565b600073ffffffffffffffffffffffffffffffffffffffff82169050919050565b60006118888261185d565b9050919050565b6118988161187d565b82525050565b60006020820190506118b3600083018461188f565b92915050565b7f4e487b7100000000000000000000000000000000000000000000000000000000600052602160045260246000fd5b600681106118f9576118f86118b9565b5b50565b600081905061190a826118e8565b919050565b600061191a826118fc565b9050919050565b61192a8161190f565b82525050565b60006020820190506119456000830184611921565b92915050565b600081519050919050565b600082825260208201905092915050565b60005b8381101561198557808201518184015260208101905061196a565b83811115611994576000848401525b50505050565b60006119a58261194b565b6119af8185611956565b93506119bf818560208601611967565b6119c8816116d8565b840191505092915050565b6119dc8161166b565b82525050565b600060408301600083015184820360008601526119ff828261199a565b9150506020830151611a1460208601826119d3565b508091505092915050565b60006020820190508181036000830152611a3981846119e2565b905092915050565b611a4a8161166b565b82525050565b6000602082019050611a656000830184611a41565b92915050565b611a748161187d565b8114611a7f57600080fd5b50565b600081359050611a9181611a6b565b92915050565b600060208284031215611aad57611aac611661565b5b6000611abb84828501611a82565b91505092915050565b60008115159050919050565b611ad981611ac4565b82525050565b606082016000820151611af56000850182611ad0565b506020820151611b086020850182611ad0565b506040820151611b1b60408501826119d3565b50505050565b6000606082019050611b366000830184611adf565b92915050565b600082825260208201905092915050565b7f596f75277265206e6f74206120766f7465720000000000000000000000000000600082015250565b6000611b83601283611b3c565b9150611b8e82611b4d565b602082019050919050565b60006020820190508181036000830152611bb281611b76565b9050919050565b7f566f74696e672073657373696f6e20686176656e74207374617274656420796560008201527f7400000000000000000000000000000000000000000000000000000000000000602082015250565b6000611c15602183611b3c565b9150611c2082611bb9565b604082019050919050565b60006020820190508181036000830152611c4481611c08565b9050919050565b7f596f75206861766520616c726561647920766f74656400000000000000000000600082015250565b6000611c81601683611b3c565b9150611c8c82611c4b565b602082019050919050565b60006020820190508181036000830152611cb081611c74565b9050919050565b7f50726f706f73616c206e6f7420666f756e640000000000000000000000000000600082015250565b6000611ced601283611b3c565b9150611cf882611cb7565b602082019050919050565b60006020820190508181036000830152611d1c81611ce0565b9050919050565b7f4e487b7100000000000000000000000000000000000000000000000000000000600052603260045260246000fd5b7f4e487b7100000000000000000000000000000000000000000000000000000000600052601160045260246000fd5b6000611d8c8261166b565b91507fffffffffffffffffffffffffffffffffffffffffffffffffffffffffffffffff8203611dbe57611dbd611d52565b5b600182019050919050565b6000604082019050611dde600083018561188f565b611deb6020830184611a41565b9392505050565b7f50726f706f73616c7320617265206e6f7420616c6c6f77656420796574000000600082015250565b6000611e28601d83611b3c565b9150611e3382611df2565b602082019050919050565b60006020820190508181036000830152611e5781611e1b565b9050919050565b50565b6000611e6e600083611b3c565b9150611e7982611e5e565b600082019050919050565b60006020820190508181036000830152611e9d81611e61565b9050919050565b6000611eaf8261194b565b611eb98185611b3c565b9350611ec9818560208601611967565b611ed2816116d8565b840191505092915050565b60006020820190508181036000830152611ef78184611ea4565b905092915050565b7f566f7573206e6520706f7576657a20706173206e65207269656e2070726f706f60008201527f7365720000000000000000000000000000000000000000000000000000000000602082015250565b6000611f5b602383611b3c565b9150611f6682611eff565b604082019050919050565b60006020820190508181036000830152611f8a81611f4e565b9050919050565b7f4e487b7100000000000000000000000000000000000000000000000000000000600052602260045260246000fd5b60006002820490506001821680611fd857607f821691505b602082108103611feb57611fea611f91565b5b50919050565b60008190508160005260206000209050919050565b60006020601f8301049050919050565b600082821b905092915050565b6000600883026120537fffffffffffffffffffffffffffffffffffffffffffffffffffffffffffffffff82612016565b61205d8683612016565b95508019841693508086168417925050509392505050565b6000819050919050565b600061209a6120956120908461166b565b612075565b61166b565b9050919050565b6000819050919050565b6120b48361207f565b6120c86120c0826120a1565b848454612023565b825550505050565b600090565b6120dd6120d0565b6120e88184846120ab565b505050565b5b8181101561210c576121016000826120d5565b6001810190506120ee565b5050565b601f8211156121515761212281611ff1565b61212b84612006565b8101602085101561213a578190505b61214e61214685612006565b8301826120ed565b50505b505050565b600082821c905092915050565b600061217460001984600802612156565b1980831691505092915050565b600061218d8383612163565b9150826002028217905092915050565b6121a68261194b565b67ffffffffffffffff8111156121bf576121be6116e9565b5b6121c98254611fc0565b6121d4828285612110565b600060209050601f83116001811461220757600084156121f5578287015190505b6121ff8582612181565b865550612267565b601f19841661221586611ff1565b60005b8281101561223d57848901518255600182019150602085019450602081019050612218565b8683101561225a5784890151612256601f891682612163565b8355505b6001600288020188555050505b505050505050565b600061227a8261166b565b91506122858361166b565b92508282101561229857612297611d52565b5b828203905092915050565b7f4f776e61626c653a2063616c6c6572206973206e6f7420746865206f776e6572600082015250565b60006122d9602083611b3c565b91506122e4826122a3565b602082019050919050565b60006020820190508181036000830152612308816122cc565b9050919050565b7f43757272656e7420737461747573206973206e6f7420766f74696e672073657360008201527f73696f6e20656e64656400000000000000000000000000000000000000000000602082015250565b600061236b602a83611b3c565b91506123768261230f565b604082019050919050565b6000602082019050818103600083015261239a8161235e565b9050919050565b60006040820190506123b66000830185611921565b6123c36020830184611921565b9392505050565b7f5265676973746572696e672070726f706f73616c732063616e7420626520737460008201527f6172746564206e6f770000000000000000000000000000000000000000000000602082015250565b6000612426602983611b3c565b9150612431826123ca565b604082019050919050565b6000602082019050818103600083015261245581612419565b9050919050565b7f5265676973746572696e672070726f706f73616c7320686176656e742073746160008201527f7274656420796574000000000000000000000000000000000000000000000000602082015250565b60006124b8602883611b3c565b91506124c38261245c565b604082019050919050565b600060208201905081810360008301526124e7816124ab565b9050919050565b7f5265676973746572696e672070726f706f73616c73207068617365206973206e60008201527f6f742066696e6973686564000000000000000000000000000000000000000000602082015250565b600061254a602b83611b3c565b9150612555826124ee565b604082019050919050565b600060208201905081810360008301526125798161253d565b9050919050565b7f4f776e61626c653a206e6577206f776e657220697320746865207a65726f206160008201527f6464726573730000000000000000000000000000000000000000000000000000602082015250565b60006125dc602683611b3c565b91506125e782612580565b604082019050919050565b6000602082019050818103600083015261260b816125cf565b9050919050565b7f566f7465727320726567697374726174696f6e206973206e6f74206f70656e2060008201527f7965740000000000000000000000000000000000000000000000000000000000602082015250565b600061266e602383611b3c565b915061267982612612565b604082019050919050565b6000602082019050818103600083015261269d81612661565b9050919050565b7f416c726561647920726567697374657265640000000000000000000000000000600082015250565b60006126da601283611b3c565b91506126e5826126a4565b602082019050919050565b60006020820190508181036000830152612709816126cd565b905091905056fea2646970667358221220f4d140bbcac78bdd3cfed580b23042f6d6ec8e50bb50f6ffa124d3c38069f07b64736f6c634300080f0033",
  "immutableReferences": {},
  "source": "// SPDX-License-Identifier: MIT\npragma solidity 0.8.15;\nimport \"../node_modules/@openzeppelin/contracts/access/Ownable.sol\";\n\ncontract Voting is Ownable {\n\n    uint public winningProposalID;\n    \n    struct Voter {\n        bool isRegistered;\n        bool hasVoted;\n        uint votedProposalId;\n    }\n\n    struct Proposal {\n        string description;\n        uint voteCount;\n    }\n\n    enum  WorkflowStatus {\n        RegisteringVoters,\n        ProposalsRegistrationStarted,\n        ProposalsRegistrationEnded,\n        VotingSessionStarted,\n        VotingSessionEnded,\n        VotesTallied\n    }\n\n    WorkflowStatus public workflowStatus;\n    Proposal[] proposalsArray;\n    mapping (address => Voter) voters;\n\n\n    event VoterRegistered(address voterAddress); \n    event WorkflowStatusChange(WorkflowStatus previousStatus, WorkflowStatus newStatus);\n    event ProposalRegistered(uint proposalId);\n    event Voted (address voter, uint proposalId);\n\n    modifier onlyVoters() {\n        require(voters[msg.sender].isRegistered, \"You're not a voter\");\n        _;\n    }\n    \n    // on peut faire un modifier pour les tats\n\n    // ::::::::::::: GETTERS ::::::::::::: //\n\n    function getVoter(address _addr) external onlyVoters view returns (Voter memory) {\n        return voters[_addr];\n    }\n    \n    function getOneProposal(uint _id) external onlyVoters view returns (Proposal memory) {\n        return proposalsArray[_id];\n    }\n\n \n    // ::::::::::::: REGISTRATION ::::::::::::: // \n\n    function addVoter(address _addr) external onlyOwner {\n        require(workflowStatus == WorkflowStatus.RegisteringVoters, 'Voters registration is not open yet');\n        require(voters[_addr].isRegistered != true, 'Already registered');\n    \n        voters[_addr].isRegistered = true;\n        emit VoterRegistered(_addr);\n    }\n \n\n    // ::::::::::::: PROPOSAL ::::::::::::: // \n\n    function addProposal(string memory _desc) external onlyVoters {\n        require(workflowStatus == WorkflowStatus.ProposalsRegistrationStarted, 'Proposals are not allowed yet');\n        require(keccak256(abi.encode(_desc)) != keccak256(abi.encode(\"\")), 'Vous ne pouvez pas ne rien proposer'); // facultatif\n        // voir que desc est different des autres\n\n        Proposal memory proposal;\n        proposal.description = _desc;\n        proposalsArray.push(proposal);\n        emit ProposalRegistered(proposalsArray.length-1);\n    }\n\n    // ::::::::::::: VOTE ::::::::::::: //\n\n    function setVote( uint _id) external onlyVoters {\n        require(workflowStatus == WorkflowStatus.VotingSessionStarted, 'Voting session havent started yet');\n        require(voters[msg.sender].hasVoted != true, 'You have already voted');\n        require(_id < proposalsArray.length, 'Proposal not found'); // pas oblig, et pas besoin du >0 car uint\n\n        voters[msg.sender].votedProposalId = _id;\n        voters[msg.sender].hasVoted = true;\n        proposalsArray[_id].voteCount++;\n\n        emit Voted(msg.sender, _id);\n    }\n\n    // ::::::::::::: STATE ::::::::::::: //\n\n\n    function startProposalsRegistering() external onlyOwner {\n        require(workflowStatus == WorkflowStatus.RegisteringVoters, 'Registering proposals cant be started now');\n        workflowStatus = WorkflowStatus.ProposalsRegistrationStarted;\n        emit WorkflowStatusChange(WorkflowStatus.RegisteringVoters, WorkflowStatus.ProposalsRegistrationStarted);\n    }\n\n    function endProposalsRegistering() external onlyOwner {\n        require(workflowStatus == WorkflowStatus.ProposalsRegistrationStarted, 'Registering proposals havent started yet');\n        workflowStatus = WorkflowStatus.ProposalsRegistrationEnded;\n        emit WorkflowStatusChange(WorkflowStatus.ProposalsRegistrationStarted, WorkflowStatus.ProposalsRegistrationEnded);\n    }\n\n    function startVotingSession() external onlyOwner {\n        require(workflowStatus == WorkflowStatus.ProposalsRegistrationEnded, 'Registering proposals phase is not finished');\n        workflowStatus = WorkflowStatus.VotingSessionStarted;\n        emit WorkflowStatusChange(WorkflowStatus.ProposalsRegistrationEnded, WorkflowStatus.VotingSessionStarted);\n    }\n\n    function endVotingSession() external onlyOwner {\n        require(workflowStatus == WorkflowStatus.VotingSessionStarted, 'Voting session havent started yet');\n        workflowStatus = WorkflowStatus.VotingSessionEnded;\n        emit WorkflowStatusChange(WorkflowStatus.VotingSessionStarted, WorkflowStatus.VotingSessionEnded);\n    }\n\n\n   function tallyVotes() external onlyOwner {\n       require(workflowStatus == WorkflowStatus.VotingSessionEnded, \"Current status is not voting session ended\");\n       uint _winningProposalId;\n      for (uint256 p = 0; p < proposalsArray.length; p++) {\n           if (proposalsArray[p].voteCount > proposalsArray[_winningProposalId].voteCount) {\n               _winningProposalId = p;\n          }\n       }\n       winningProposalID = _winningProposalId;\n       \n       workflowStatus = WorkflowStatus.VotesTallied;\n       emit WorkflowStatusChange(WorkflowStatus.VotingSessionEnded, WorkflowStatus.VotesTallied);\n    }\n}",
  "sourcePath": "/home/jeangal/truflle_wsl_test/contracts/Voting.sol",
  "compiler": {
    "name": "solc",
    "version": "0.8.15+commit.e14f2714.Emscripten.clang"
  },
  "schemaVersion": "3.4.7",
  "updatedAt": "2022-06-18T13:18:26.397Z",
  "networkType": "ethereum",
  "devdoc": {
    "kind": "dev",
    "methods": {
      "owner()": {
        "details": "Returns the address of the current owner."
      },
      "renounceOwnership()": {
        "details": "Leaves the contract without owner. It will not be possible to call `onlyOwner` functions anymore. Can only be called by the current owner. NOTE: Renouncing ownership will leave the contract without an owner, thereby removing any functionality that is only available to the owner."
      },
      "transferOwnership(address)": {
        "details": "Transfers ownership of the contract to a new account (`newOwner`). Can only be called by the current owner."
      }
    },
    "version": 1
  },
  "userdoc": {
    "kind": "user",
    "methods": {},
    "version": 1
  }
}